{
  "contractName": "Contacts",
  "abi": [
    {
      "inputs": [
        {
          "internalType": "uint256",
          "name": "",
          "type": "uint256"
        }
      ],
      "name": "contacts",
      "outputs": [
        {
          "internalType": "uint256",
          "name": "id",
          "type": "uint256"
        },
        {
          "internalType": "string",
          "name": "name",
          "type": "string"
        },
        {
          "internalType": "string",
          "name": "prediction",
          "type": "string"
        },
        {
          "internalType": "bool",
          "name": "checked",
          "type": "bool"
        }
      ],
      "stateMutability": "view",
      "type": "function",
      "constant": true
    },
    {
      "inputs": [],
      "name": "count",
      "outputs": [
        {
          "internalType": "uint256",
          "name": "",
          "type": "uint256"
        }
      ],
      "stateMutability": "view",
      "type": "function",
      "constant": true
    },
    {
      "inputs": [
        {
          "internalType": "string",
          "name": "_name",
          "type": "string"
        },
        {
          "internalType": "string",
          "name": "_prediction",
          "type": "string"
        }
      ],
      "name": "createContact",
      "outputs": [],
      "stateMutability": "nonpayable",
      "type": "function"
    },
    {
      "inputs": [
        {
          "internalType": "string",
          "name": "_name",
          "type": "string"
        },
        {
          "internalType": "string",
          "name": "_prediction",
          "type": "string"
        }
      ],
      "name": "isContactExist",
      "outputs": [
        {
          "internalType": "bool",
          "name": "",
          "type": "bool"
        }
      ],
      "stateMutability": "view",
      "type": "function",
      "constant": true
    },
    {
      "inputs": [],
      "name": "getUncheckedContacts",
      "outputs": [
        {
          "internalType": "uint256[]",
          "name": "",
          "type": "uint256[]"
        },
        {
          "internalType": "string[]",
          "name": "",
          "type": "string[]"
        },
        {
          "internalType": "string[]",
          "name": "",
          "type": "string[]"
        }
      ],
      "stateMutability": "view",
      "type": "function",
      "constant": true
    }
  ],
  "bytecode": "0x60806040526000805534801561001457600080fd5b506111ed806100246000396000f3fe608060405234801561001057600080fd5b50600436106100575760003560e01c806306661abd1461005c5780633dce49201461007a57806368878c8a14610096578063b4e66191146100c6578063e0f478cb146100e6575b600080fd5b610064610119565b60405161007191906109d8565b60405180910390f35b610094600480360381019061008f9190610b4d565b61011f565b005b6100b060048036038101906100ab9190610b4d565b610225565b6040516100bd9190610be0565b60405180910390f35b6100ce610329565b6040516100dd93929190610e03565b60405180910390f35b61010060048036038101906100fb9190610e7b565b6107cf565b6040516101109493929190610ef2565b60405180910390f35b60005481565b6101298282610225565b15610169576040517f08c379a000000000000000000000000000000000000000000000000000000000815260040161016090610f91565b60405180910390fd5b60008081548092919061017b90610fe0565b9190505550604051806080016040528060005481526020018381526020018281526020016000151581525060016000805481526020019081526020016000206000820151816000015560208201518160010190805190602001906101e092919061091c565b5060408201518160020190805190602001906101fd92919061091c565b5060608201518160030160006101000a81548160ff0219169083151502179055509050505050565b600080600190505b600054811161031d5760006001600083815260200190815260200160002090508460405160200161025e9190611065565b60405160208183030381529060405280519060200120816001016040516020016102889190611171565b604051602081830303815290604052805190602001201480156102f95750836040516020016102b79190611065565b60405160208183030381529060405280519060200120816002016040516020016102e19190611171565b60405160208183030381529060405280519060200120145b1561030957600192505050610323565b50808061031590610fe0565b91505061022d565b50600090505b92915050565b60608060606000805467ffffffffffffffff81111561034b5761034a610a22565b5b6040519080825280602002602001820160405280156103795781602001602082028036833780820191505090505b5090506000805467ffffffffffffffff81111561039957610398610a22565b5b6040519080825280602002602001820160405280156103cc57816020015b60608152602001906001900390816103b75790505b5090506000805467ffffffffffffffff8111156103ec576103eb610a22565b5b60405190808252806020026020018201604052801561041f57816020015b606081526020019060019003908161040a5790505b509050600080600190505b60005481116105fd5760006001600083815260200190815260200160002090508060030160009054906101000a900460ff166105e957806000015486848151811061047857610477611188565b5b602002602001018181525050806001018054610493906110ab565b80601f01602080910402602001604051908101604052809291908181526020018280546104bf906110ab565b801561050c5780601f106104e15761010080835404028352916020019161050c565b820191906000526020600020905b8154815290600101906020018083116104ef57829003601f168201915b505050505085848151811061052457610523611188565b5b602002602001018190525080600201805461053e906110ab565b80601f016020809104026020016040519081016040528092919081815260200182805461056a906110ab565b80156105b75780601f1061058c576101008083540402835291602001916105b7565b820191906000526020600020905b81548152906001019060200180831161059a57829003601f168201915b50505050508484815181106105cf576105ce611188565b5b602002602001018190525082806105e590610fe0565b9350505b5080806105f590610fe0565b91505061042a565b5060008167ffffffffffffffff81111561061a57610619610a22565b5b6040519080825280602002602001820160405280156106485781602001602082028036833780820191505090505b50905060008267ffffffffffffffff81111561066757610666610a22565b5b60405190808252806020026020018201604052801561069a57816020015b60608152602001906001900390816106855790505b50905060008367ffffffffffffffff8111156106b9576106b8610a22565b5b6040519080825280602002602001820160405280156106ec57816020015b60608152602001906001900390816106d75790505b50905060005b848110156107b95787818151811061070d5761070c611188565b5b602002602001015184828151811061072857610727611188565b5b60200260200101818152505086818151811061074757610746611188565b5b602002602001015183828151811061076257610761611188565b5b60200260200101819052508581815181106107805761077f611188565b5b602002602001015182828151811061079b5761079a611188565b5b602002602001018190525080806107b190610fe0565b9150506106f2565b5082828299509950995050505050505050909192565b60016020528060005260406000206000915090508060000154908060010180546107f8906110ab565b80601f0160208091040260200160405190810160405280929190818152602001828054610824906110ab565b80156108715780601f1061084657610100808354040283529160200191610871565b820191906000526020600020905b81548152906001019060200180831161085457829003601f168201915b505050505090806002018054610886906110ab565b80601f01602080910402602001604051908101604052809291908181526020018280546108b2906110ab565b80156108ff5780601f106108d4576101008083540402835291602001916108ff565b820191906000526020600020905b8154815290600101906020018083116108e257829003601f168201915b5050505050908060030160009054906101000a900460ff16905084565b828054610928906110ab565b90600052602060002090601f01602090048101928261094a5760008555610991565b82601f1061096357805160ff1916838001178555610991565b82800160010185558215610991579182015b82811115610990578251825591602001919060010190610975565b5b50905061099e91906109a2565b5090565b5b808211156109bb5760008160009055506001016109a3565b5090565b6000819050919050565b6109d2816109bf565b82525050565b60006020820190506109ed60008301846109c9565b92915050565b6000604051905090565b600080fd5b600080fd5b600080fd5b600080fd5b6000601f19601f8301169050919050565b7f4e487b7100000000000000000000000000000000000000000000000000000000600052604160045260246000fd5b610a5a82610a11565b810181811067ffffffffffffffff82111715610a7957610a78610a22565b5b80604052505050565b6000610a8c6109f3565b9050610a988282610a51565b919050565b600067ffffffffffffffff821115610ab857610ab7610a22565b5b610ac182610a11565b9050602081019050919050565b82818337600083830152505050565b6000610af0610aeb84610a9d565b610a82565b905082815260208101848484011115610b0c57610b0b610a0c565b5b610b17848285610ace565b509392505050565b600082601f830112610b3457610b33610a07565b5b8135610b44848260208601610add565b91505092915050565b60008060408385031215610b6457610b636109fd565b5b600083013567ffffffffffffffff811115610b8257610b81610a02565b5b610b8e85828601610b1f565b925050602083013567ffffffffffffffff811115610baf57610bae610a02565b5b610bbb85828601610b1f565b9150509250929050565b60008115159050919050565b610bda81610bc5565b82525050565b6000602082019050610bf56000830184610bd1565b92915050565b600081519050919050565b600082825260208201905092915050565b6000819050602082019050919050565b610c30816109bf565b82525050565b6000610c428383610c27565b60208301905092915050565b6000602082019050919050565b6000610c6682610bfb565b610c708185610c06565b9350610c7b83610c17565b8060005b83811015610cac578151610c938882610c36565b9750610c9e83610c4e565b925050600181019050610c7f565b5085935050505092915050565b600081519050919050565b600082825260208201905092915050565b6000819050602082019050919050565b600081519050919050565b600082825260208201905092915050565b60005b83811015610d1f578082015181840152602081019050610d04565b83811115610d2e576000848401525b50505050565b6000610d3f82610ce5565b610d498185610cf0565b9350610d59818560208601610d01565b610d6281610a11565b840191505092915050565b6000610d798383610d34565b905092915050565b6000602082019050919050565b6000610d9982610cb9565b610da38185610cc4565b935083602082028501610db585610cd5565b8060005b85811015610df15784840389528151610dd28582610d6d565b9450610ddd83610d81565b925060208a01995050600181019050610db9565b50829750879550505050505092915050565b60006060820190508181036000830152610e1d8186610c5b565b90508181036020830152610e318185610d8e565b90508181036040830152610e458184610d8e565b9050949350505050565b610e58816109bf565b8114610e6357600080fd5b50565b600081359050610e7581610e4f565b92915050565b600060208284031215610e9157610e906109fd565b5b6000610e9f84828501610e66565b91505092915050565b600082825260208201905092915050565b6000610ec482610ce5565b610ece8185610ea8565b9350610ede818560208601610d01565b610ee781610a11565b840191505092915050565b6000608082019050610f0760008301876109c9565b8181036020830152610f198186610eb9565b90508181036040830152610f2d8185610eb9565b9050610f3c6060830184610bd1565b95945050505050565b7f6e616d6520616c72656164792065786973747300000000000000000000000000600082015250565b6000610f7b601383610ea8565b9150610f8682610f45565b602082019050919050565b60006020820190508181036000830152610faa81610f6e565b9050919050565b7f4e487b7100000000000000000000000000000000000000000000000000000000600052601160045260246000fd5b6000610feb826109bf565b91507fffffffffffffffffffffffffffffffffffffffffffffffffffffffffffffffff82141561101e5761101d610fb1565b5b600182019050919050565b600081905092915050565b600061103f82610ce5565b6110498185611029565b9350611059818560208601610d01565b80840191505092915050565b60006110718284611034565b915081905092915050565b7f4e487b7100000000000000000000000000000000000000000000000000000000600052602260045260246000fd5b600060028204905060018216806110c357607f821691505b602082108114156110d7576110d661107c565b5b50919050565b60008190508160005260206000209050919050565b600081546110ff816110ab565b6111098186611029565b94506001821660008114611124576001811461113557611168565b60ff19831686528186019350611168565b61113e856110dd565b60005b8381101561116057815481890152600182019150602081019050611141565b838801955050505b50505092915050565b600061117d82846110f2565b915081905092915050565b7f4e487b7100000000000000000000000000000000000000000000000000000000600052603260045260246000fdfea2646970667358221220fc9c546ac736e8485006bcb1b15768850a1b84cafd692f938c68cf67f207c1fe64736f6c634300080a0033",
  "immutableReferences": {},
  "source": "// // SPDX-License-Identifier: MIT\r\n// pragma solidity ^0.8.0;\r\n\r\n// contract Contracts {\r\n//     struct Prediction {\r\n//         string name;\r\n//         string prediction;\r\n//         bool checked;\r\n//     }\r\n\r\n//     mapping(string => Prediction) predictions;\r\n\r\n//     function storePrediction(string memory _name, string memory _prediction) public {\r\n//         predictions[_name] = Prediction(_name, _prediction, false); // The default value of 'checked' is false\r\n//     }\r\n\r\n//     function getPrediction(string memory _name) public view returns (string memory, string memory, bool) {\r\n//         Prediction storage prediction = predictions[_name];\r\n//         return (prediction.name, prediction.prediction, prediction.checked);\r\n//     }\r\n\r\n//     function markAsChecked(string memory _name) public {\r\n//     require(bytes(predictions[_name].name).length > 0, \"Prediction does not exist\");\r\n//     predictions[_name].checked = true;\r\n//     }\r\n\r\n// }\r\npragma solidity ^0.8.10;\r\n\r\ncontract Contacts {\r\n    uint public count = 0;\r\n\r\n    struct Contact {\r\n        uint id;\r\n        string name;\r\n        string prediction;\r\n        bool checked;\r\n    }\r\n\r\n    mapping(uint => Contact) public contacts;\r\n\r\n    function createContact(string memory _name, string memory _prediction) public {\r\n        require(!isContactExist(_name, _prediction), \"name already exists\");\r\n        count++;\r\n        contacts[count] = Contact(count, _name, _prediction, false);\r\n    }\r\n\r\n    function isContactExist(string memory _name, string memory _prediction) view public returns (bool) {\r\n        for (uint i = 1; i <= count; i++) {\r\n            Contact storage contact = contacts[i];\r\n            if (keccak256(abi.encodePacked(contact.name)) == keccak256(abi.encodePacked(_name)) &&\r\n                keccak256(abi.encodePacked(contact.prediction)) == keccak256(abi.encodePacked(_prediction))) {\r\n                return true;\r\n            }\r\n        }\r\n        return false;\r\n    }\r\n\r\n    function getUncheckedContacts() public view returns (uint[] memory, string[] memory, string[] memory) {\r\n        uint[] memory uncheckedIds = new uint[](count);\r\n        string[] memory uncheckedNames = new string[](count);\r\n        string[] memory uncheckedPredictions = new string[](count);\r\n\r\n        uint uncheckedCount = 0;\r\n        for (uint i = 1; i <= count; i++) {\r\n            Contact storage contact = contacts[i];\r\n            if (!contact.checked) {\r\n                uncheckedIds[uncheckedCount] = contact.id;\r\n                uncheckedNames[uncheckedCount] = contact.name;\r\n                uncheckedPredictions[uncheckedCount] = contact.prediction;\r\n                uncheckedCount++;\r\n            }\r\n        }\r\n\r\n        uint[] memory uncheckedIdsTrimmed = new uint[](uncheckedCount);\r\n        string[] memory uncheckedNamesTrimmed = new string[](uncheckedCount);\r\n        string[] memory uncheckedPredictionsTrimmed = new string[](uncheckedCount);\r\n\r\n        for (uint i = 0; i < uncheckedCount; i++) {\r\n            uncheckedIdsTrimmed[i] = uncheckedIds[i];\r\n            uncheckedNamesTrimmed[i] = uncheckedNames[i];\r\n            uncheckedPredictionsTrimmed[i] = uncheckedPredictions[i];\r\n        }\r\n\r\n        return (uncheckedIdsTrimmed, uncheckedNamesTrimmed, uncheckedPredictionsTrimmed);\r\n    }\r\n\r\n}\r\n",
  "sourcePath": "E:\\Full Stack\\BlockChain\\blockchain-node-api\\contracts\\Contracts.sol",
  "compiler": {
    "name": "solc",
    "version": "0.8.10+commit.fc410830.Emscripten.clang"
  },
  "schemaVersion": "3.4.16",
  "updatedAt": "2023-11-09T12:32:53.985Z",
  "networkType": "ethereum",
  "devdoc": {
    "kind": "dev",
    "methods": {},
    "version": 1
  },
  "userdoc": {
    "kind": "user",
    "methods": {},
    "version": 1
  }
}