{
  "contractName": "PredictionStorage",
  "abi": [
    {
      "inputs": [
        {
          "internalType": "string",
          "name": "_name",
          "type": "string"
        },
        {
          "internalType": "string",
          "name": "_prediction",
          "type": "string"
        }
      ],
      "name": "storePrediction",
      "outputs": [],
      "stateMutability": "nonpayable",
      "type": "function"
    },
    {
      "inputs": [
        {
          "internalType": "string",
          "name": "_name",
          "type": "string"
        }
      ],
      "name": "getPrediction",
      "outputs": [
        {
          "internalType": "string",
          "name": "",
          "type": "string"
        },
        {
          "internalType": "string",
          "name": "",
          "type": "string"
        },
        {
          "internalType": "bool",
          "name": "",
          "type": "bool"
        }
      ],
      "stateMutability": "view",
      "type": "function"
    },
    {
      "inputs": [
        {
          "internalType": "string",
          "name": "_name",
          "type": "string"
        }
      ],
      "name": "markAsChecked",
      "outputs": [],
      "stateMutability": "nonpayable",
      "type": "function"
    }
  ],
  "bytecode": "0x608060405234801561001057600080fd5b5061085b806100206000396000f3fe608060405234801561001057600080fd5b50600436106100415760003560e01c80632bfd7523146100465780636ab6d25014610062578063c6b5c4fc1461007e575b600080fd5b610060600480360381019061005b919061055c565b6100b0565b005b61007c600480360381019061007791906105a5565b61015c565b005b6100986004803603810190610093919061055c565b6101f9565b6040516100a7939291906106c0565b60405180910390f35b600080826040516100c19190610741565b908152602001604051809103902060000180546100dd90610787565b90501161011f576040517f08c379a000000000000000000000000000000000000000000000000000000000815260040161011690610805565b60405180910390fd5b60016000826040516101319190610741565b908152602001604051809103902060020160006101000a81548160ff02191690831515021790555050565b60405180606001604052808381526020018281526020016000151581525060008360405161018a9190610741565b908152602001604051809103902060008201518160000190805190602001906101b492919061035f565b5060208201518160010190805190602001906101d192919061035f565b5060408201518160020160006101000a81548160ff0219169083151502179055509050505050565b60608060008060008560405161020f9190610741565b9081526020016040518091039020905080600001816001018260020160009054906101000a900460ff1682805461024590610787565b80601f016020809104026020016040519081016040528092919081815260200182805461027190610787565b80156102be5780601f10610293576101008083540402835291602001916102be565b820191906000526020600020905b8154815290600101906020018083116102a157829003601f168201915b505050505092508180546102d190610787565b80601f01602080910402602001604051908101604052809291908181526020018280546102fd90610787565b801561034a5780601f1061031f5761010080835404028352916020019161034a565b820191906000526020600020905b81548152906001019060200180831161032d57829003601f168201915b50505050509150935093509350509193909250565b82805461036b90610787565b90600052602060002090601f01602090048101928261038d57600085556103d4565b82601f106103a657805160ff19168380011785556103d4565b828001600101855582156103d4579182015b828111156103d35782518255916020019190600101906103b8565b5b5090506103e191906103e5565b5090565b5b808211156103fe5760008160009055506001016103e6565b5090565b6000604051905090565b600080fd5b600080fd5b600080fd5b600080fd5b6000601f19601f8301169050919050565b7f4e487b7100000000000000000000000000000000000000000000000000000000600052604160045260246000fd5b61046982610420565b810181811067ffffffffffffffff8211171561048857610487610431565b5b80604052505050565b600061049b610402565b90506104a78282610460565b919050565b600067ffffffffffffffff8211156104c7576104c6610431565b5b6104d082610420565b9050602081019050919050565b82818337600083830152505050565b60006104ff6104fa846104ac565b610491565b90508281526020810184848401111561051b5761051a61041b565b5b6105268482856104dd565b509392505050565b600082601f83011261054357610542610416565b5b81356105538482602086016104ec565b91505092915050565b6000602082840312156105725761057161040c565b5b600082013567ffffffffffffffff8111156105905761058f610411565b5b61059c8482850161052e565b91505092915050565b600080604083850312156105bc576105bb61040c565b5b600083013567ffffffffffffffff8111156105da576105d9610411565b5b6105e68582860161052e565b925050602083013567ffffffffffffffff81111561060757610606610411565b5b6106138582860161052e565b9150509250929050565b600081519050919050565b600082825260208201905092915050565b60005b8381101561065757808201518184015260208101905061063c565b83811115610666576000848401525b50505050565b60006106778261061d565b6106818185610628565b9350610691818560208601610639565b61069a81610420565b840191505092915050565b60008115159050919050565b6106ba816106a5565b82525050565b600060608201905081810360008301526106da818661066c565b905081810360208301526106ee818561066c565b90506106fd60408301846106b1565b949350505050565b600081905092915050565b600061071b8261061d565b6107258185610705565b9350610735818560208601610639565b80840191505092915050565b600061074d8284610710565b915081905092915050565b7f4e487b7100000000000000000000000000000000000000000000000000000000600052602260045260246000fd5b6000600282049050600182168061079f57607f821691505b602082108114156107b3576107b2610758565b5b50919050565b7f50726564696374696f6e20646f6573206e6f7420657869737400000000000000600082015250565b60006107ef601983610628565b91506107fa826107b9565b602082019050919050565b6000602082019050818103600083015261081e816107e2565b905091905056fea26469706673582212203c8c21169b76aece5f975c61226d382f3bb06d840dea24e182e3b0dc62f8886564736f6c634300080a0033",
  "immutableReferences": {},
  "source": "// SPDX-License-Identifier: MIT\r\npragma solidity ^0.8.0;\r\n\r\ncontract PredictionStorage {\r\n    struct Prediction {\r\n        string name;\r\n        string prediction;\r\n        bool checked;\r\n    }\r\n\r\n    mapping(string => Prediction) predictions;\r\n\r\n    function storePrediction(string memory _name, string memory _prediction) public {\r\n        predictions[_name] = Prediction(_name, _prediction, false); // The default value of 'checked' is false\r\n    }\r\n\r\n    function getPrediction(string memory _name) public view returns (string memory, string memory, bool) {\r\n        Prediction storage prediction = predictions[_name];\r\n        return (prediction.name, prediction.prediction, prediction.checked);\r\n    }\r\n\r\n    function markAsChecked(string memory _name) public {\r\n        require(bytes(predictions[_name].name).length > 0, \"Prediction does not exist\");\r\n        predictions[_name].checked = true;\r\n    }\r\n}\r\n",
  "sourcePath": "E:\\Full Stack\\BlockChain\\blockchain-node-api\\contracts\\Contracts.sol",
  "compiler": {
    "name": "solc",
    "version": "0.8.10+commit.fc410830.Emscripten.clang"
  },
  "schemaVersion": "3.4.16",
  "updatedAt": "2023-11-08T18:04:43.881Z",
  "devdoc": {
    "kind": "dev",
    "methods": {},
    "version": 1
  },
  "userdoc": {
    "kind": "user",
    "methods": {},
    "version": 1
  }
}