{
  "contractName": "Predictions",
  "abi": [
    {
      "anonymous": false,
      "inputs": [
        {
          "indexed": false,
          "internalType": "address",
          "name": "patient",
          "type": "address"
        },
        {
          "indexed": false,
          "internalType": "string",
          "name": "predictionData",
          "type": "string"
        }
      ],
      "name": "PredictionAdded",
      "type": "event"
    },
    {
      "anonymous": false,
      "inputs": [
        {
          "indexed": false,
          "internalType": "address",
          "name": "patient",
          "type": "address"
        }
      ],
      "name": "PredictionChecked",
      "type": "event"
    },
    {
      "inputs": [
        {
          "internalType": "address",
          "name": "",
          "type": "address"
        }
      ],
      "name": "predictions",
      "outputs": [
        {
          "internalType": "address",
          "name": "patient",
          "type": "address"
        },
        {
          "internalType": "string",
          "name": "predictionData",
          "type": "string"
        },
        {
          "internalType": "bool",
          "name": "checked",
          "type": "bool"
        }
      ],
      "stateMutability": "view",
      "type": "function"
    },
    {
      "inputs": [
        {
          "internalType": "string",
          "name": "_predictionData",
          "type": "string"
        }
      ],
      "name": "createPrediction",
      "outputs": [],
      "stateMutability": "nonpayable",
      "type": "function"
    },
    {
      "inputs": [],
      "name": "checkPrediction",
      "outputs": [],
      "stateMutability": "nonpayable",
      "type": "function"
    }
  ],
  "bytecode": "0x608060405234801561001057600080fd5b50610972806100206000396000f3fe608060405234801561001057600080fd5b50600436106100415760003560e01c806335fa61fa1461004657806371086c3d14610078578063fdaeb8cb14610082575b600080fd5b610060600480360381019061005b9190610578565b61009e565b60405161006f93929190610668565b60405180910390f35b61008061017d565b005b61009c600480360381019061009791906107db565b61029f565b005b60006020528060005260406000206000915090508060000160009054906101000a900473ffffffffffffffffffffffffffffffffffffffff16908060010180546100e790610853565b80601f016020809104026020016040519081016040528092919081815260200182805461011390610853565b80156101605780601f1061013557610100808354040283529160200191610160565b820191906000526020600020905b81548152906001019060200180831161014357829003601f168201915b5050505050908060020160009054906101000a900460ff16905083565b6000803373ffffffffffffffffffffffffffffffffffffffff1673ffffffffffffffffffffffffffffffffffffffff16815260200190815260200160002060020160009054906101000a900460ff161561020c576040517f08c379a0000000000000000000000000000000000000000000000000000000008152600401610203906108d1565b60405180910390fd5b60016000803373ffffffffffffffffffffffffffffffffffffffff1673ffffffffffffffffffffffffffffffffffffffff16815260200190815260200160002060020160006101000a81548160ff0219169083151502179055507ff7871fbbde8364a954be0ca9e0d4f017c2247ecc0e9d6484439dec186d4f55163360405161029591906108f1565b60405180910390a1565b6000803373ffffffffffffffffffffffffffffffffffffffff1673ffffffffffffffffffffffffffffffffffffffff16815260200190815260200160002060020160009054906101000a900460ff161561032e576040517f08c379a0000000000000000000000000000000000000000000000000000000008152600401610325906108d1565b60405180910390fd5b60405180606001604052803373ffffffffffffffffffffffffffffffffffffffff168152602001828152602001600015158152506000803373ffffffffffffffffffffffffffffffffffffffff1673ffffffffffffffffffffffffffffffffffffffff16815260200190815260200160002060008201518160000160006101000a81548173ffffffffffffffffffffffffffffffffffffffff021916908373ffffffffffffffffffffffffffffffffffffffff1602179055506020820151816001019080519060200190610403929190610463565b5060408201518160020160006101000a81548160ff0219169083151502179055509050507f56b1d260aa827d84166e3db0b8fe88c2ba018d85ac2b7baaa5e0d660bd5d858b338260405161045892919061090c565b60405180910390a150565b82805461046f90610853565b90600052602060002090601f01602090048101928261049157600085556104d8565b82601f106104aa57805160ff19168380011785556104d8565b828001600101855582156104d8579182015b828111156104d75782518255916020019190600101906104bc565b5b5090506104e591906104e9565b5090565b5b808211156105025760008160009055506001016104ea565b5090565b6000604051905090565b600080fd5b600080fd5b600073ffffffffffffffffffffffffffffffffffffffff82169050919050565b60006105458261051a565b9050919050565b6105558161053a565b811461056057600080fd5b50565b6000813590506105728161054c565b92915050565b60006020828403121561058e5761058d610510565b5b600061059c84828501610563565b91505092915050565b6105ae8161053a565b82525050565b600081519050919050565b600082825260208201905092915050565b60005b838110156105ee5780820151818401526020810190506105d3565b838111156105fd576000848401525b50505050565b6000601f19601f8301169050919050565b600061061f826105b4565b61062981856105bf565b93506106398185602086016105d0565b61064281610603565b840191505092915050565b60008115159050919050565b6106628161064d565b82525050565b600060608201905061067d60008301866105a5565b818103602083015261068f8185610614565b905061069e6040830184610659565b949350505050565b600080fd5b600080fd5b7f4e487b7100000000000000000000000000000000000000000000000000000000600052604160045260246000fd5b6106e882610603565b810181811067ffffffffffffffff82111715610707576107066106b0565b5b80604052505050565b600061071a610506565b905061072682826106df565b919050565b600067ffffffffffffffff821115610746576107456106b0565b5b61074f82610603565b9050602081019050919050565b82818337600083830152505050565b600061077e6107798461072b565b610710565b90508281526020810184848401111561079a576107996106ab565b5b6107a584828561075c565b509392505050565b600082601f8301126107c2576107c16106a6565b5b81356107d284826020860161076b565b91505092915050565b6000602082840312156107f1576107f0610510565b5b600082013567ffffffffffffffff81111561080f5761080e610515565b5b61081b848285016107ad565b91505092915050565b7f4e487b7100000000000000000000000000000000000000000000000000000000600052602260045260246000fd5b6000600282049050600182168061086b57607f821691505b6020821081141561087f5761087e610824565b5b50919050565b7f50726564696374696f6e20616c726561647920636865636b6564000000000000600082015250565b60006108bb601a836105bf565b91506108c682610885565b602082019050919050565b600060208201905081810360008301526108ea816108ae565b9050919050565b600060208201905061090660008301846105a5565b92915050565b600060408201905061092160008301856105a5565b81810360208301526109338184610614565b9050939250505056fea26469706673582212207ab9c3bd96e01b39871e8ca4fe3ded99b7aa3518c9b602e616a50887dff125d864736f6c634300080a0033",
  "immutableReferences": {},
  "source": "// SPDX-License-Identifier: MIT\r\npragma solidity ^0.8.0;\r\n\r\ncontract Predictions {\r\n    struct Prediction {\r\n        address patient;\r\n        string predictionData;\r\n        bool checked;\r\n    }\r\n\r\n    mapping(address => Prediction) public predictions;\r\n\r\n    event PredictionAdded(address patient, string predictionData);\r\n    event PredictionChecked(address patient);\r\n\r\n    function createPrediction(string memory _predictionData) public {\r\n        require(!predictions[msg.sender].checked, \"Prediction already checked\");\r\n        predictions[msg.sender] = Prediction(msg.sender, _predictionData, false);\r\n        emit PredictionAdded(msg.sender, _predictionData);\r\n    }\r\n\r\n    function checkPrediction() public {\r\n        require(!predictions[msg.sender].checked, \"Prediction already checked\");\r\n        predictions[msg.sender].checked = true;\r\n        emit PredictionChecked(msg.sender);\r\n    }\r\n}\r\n",
  "sourcePath": "E:\\Full Stack\\BlockChain\\blockchain-node-api\\contracts\\Contracts.sol",
  "compiler": {
    "name": "solc",
    "version": "0.8.10+commit.fc410830.Emscripten.clang"
  },
  "schemaVersion": "3.4.16",
  "updatedAt": "2023-11-08T12:43:38.910Z",
  "devdoc": {
    "kind": "dev",
    "methods": {},
    "version": 1
  },
  "userdoc": {
    "kind": "user",
    "methods": {},
    "version": 1
  }
}